:020000040800F2
:1000000000040020D1010008A1030008A10300089A
:10001000A1030008A1030008A1030008A103000830
:10002000A1030008A1030008A1030008C103000800
:10003000A1030008A1030008A1030008910400081F
:10004000A1030008A1030008A1030008A103000800
:10005000A1030008A1030008A1030008A1030008F0
:10006000A1030008A1030008A1030008A10F0008D4
:10007000D10F0008011000083110000861100008BD
:1000800091100008C1100008F1150008A103000834
:10009000A1030008A1030008A1030008A1030008B0
:1000A000A1030008A1030008A1030008A1030008A0
:1000B000A1030008A103000871160008A1030008AD
:1000C000A1030008A1030008A1030008A103000880
:1000D000A1030008A103000831190008A1030008CA
:1000E000A1030008A1030008A1030008A103000860
:1000F000A1030008A1030008A1030008F1100008F3
:10010000A1030008A1030008A1030008A10300083F
:10011000A1030008A1030008A1030008A10300082F
:10012000211100085111000881110008B1110008C7
:10013000E1110008A1030008A1030008A1030008C1
:10014000A1030008A1030008A1030008A1030008FF
:10015000111200084112000871120008A1030008E2
:10016000A1030008A1030008A1030008A1030008DF
:10017000A1030008A1030008A1030008A1030008CF
:08018000A1030008A10300081F
:1001900008B500F025FE00F0EBF901F0A9FC01F034
:1001A000BFFCFCE7AFF30080AFF30080AFF300804B
:1001B000704700BFAFF30080AFF30080AFF3008063
:1001C000FEE700BFAFF30080AFF30080AFF3008025
:1001D00072B6644C84F30988022383F31488BFF356
:1001E0006F8F61486149884218D2CA1C051D531B94
:1001F00023F00302034610184FF055318342196073
:10020000C2F380020AD01AB185422B46296005D07C
:100210001D1D5960083383426960F9D15448A042DA
:1002200018D25449041D0A1B22F00305034628185E
:100230004FF0553183421960C5F380020AD01AB1DC
:1002400084422346216005D01D1D59600833834236
:100250006960F9D101F01CFC4749484881421BD232
:10026000C61C0C1D321B464822F00302161D0568F1
:100270000423B3420D60C2F380020DD022B1456861
:100280000823B342256007D01A1D1D5884585D50BD
:100290000833B3428C50F7D13A483B49884217D2D1
:1002A000CB1C041D1A1B22F003050346281800214D
:1002B00083421960C5F380020AD01AB184422346F2
:1002C000216005D01D1D5960083383426960F9D152
:1002D000FFF76EFF2D4D2E498D421DD2CC1C2E1DD9
:1002E000A71BB808471C01242A6800EA04089047A5
:1002F000BC4211D0B8F1000F05D0022433689847F2
:10030000BC42354608D0696888470234A8682E1D6B
:1003100080470835BC42F6D1FFF73AFF1D4D1E4A13
:1003200095421DD2D41C2E1DA71BBB085F1C0124A7
:10033000296803EA04088847BC4211D0B8F1000FCD
:1003400005D0022430688047BC42354608D06A6830
:1003500090470234AB682E1D98470835BC42F6D151
:10036000FFF72EFF000800200000002000040020FE
:1003700000040020030800200008002000080020DE
:10038000681D000800080020080C002088010008F3
:10039000880100088801000888010008AFF3008088
:1003A000FEE700BFAFF30080AFF30080AFF3008043
:1003B00000F086FA00DF00BFAFF30080AFF30080EB
:1003C000EFF30983203383F30988002383F3118833
:1003D000704700BFAFF30080AFF30080AFF3008041
:1003E00008B54FF46D43CEF200034FF44072C0F2F3
:1003F000FA520021996007201021DA6000F090F88D
:100400000A204FF4007100F08BF80B208021BDE82A
:10041000084000F085B800BFAFF30080AFF3008064
:10042000202383F311884FF46D43CEF20003586804
:1004300010F4006319D0EFF30983A3F1200282F3D3
:10044000098810494FF080708A6943F8040CD07F06
:1004500009689268896858B1914294BF00220122CC
:1004600062B1094A43F8082C704783F3118870473A
:10047000914234BF00220122002AF2D1034843F8FE
:10048000080C704718090020B1030008B4030008E5
:1004900008B5202383F3118800F0A2F8002383F32A
:1004A0001188BDE80840FFF7BBBF00BFAFF3008075
:1004B0002DE9F04FC1F80CD0D0F80CD0BDE8F08F8A
:1004C000002383F311882846A04700F0B1FA704753
:1004D000F0B44FF461438408CEF20003C03400F05E
:1004E000030553F82470ED00FF26420906FA05F6CD
:1004F00027EA060601FA05F500F01F0002F1600781
:10050000012101FA00F02E4343F8246043F827004C
:1005100043F82200F0BC7047AFF30080AFF30080D7
:1005200082084FF46D43CEF20003063200F0030060
:1005300030B4C00053F82250FF2404FA00F425EA36
:10054000040401FA00F10C4343F8224030BC704728
:10055000024B034A98698261FEE700BF1809002038
:10056000501B0008AFF30080AFF30080AFF30080B2
:1005700000B583B0FFF734FF00F0DAF800F060F860
:1005800000F0E6FB00F01CFC40F600004021C2F247
:10059000000000F0A5F940F61811C2F20001012296
:1005A00088610277002383F3118862B641F66030D8
:1005B0008969C0F600008861009340F6480040F267
:1005C0005153C021C0F60003C2F2000000F0E8F968
:1005D00003B000BDAFF30080AFF30080AFF3008045
:1005E00038B5134B9869C27F0AB1511EC177036AAF
:1005F000104C5A1C0262E0682268411CA242E16071
:1006000014D09568013D956085B91368D1685C6028
:100610002360D560002383F3118810698847202365
:1006200083F31188226890680028EED038BD00BF9F
:100630001809002008090020AFF30080AFF3008004
:1006400040F60813C2F200034FF0FF3200205B6057
:100650001B609A60D8607047AFF30080AFF30080F2
:1006600070B40C4E03613468C260A568A94204D915
:100670002468491BA5688D42FAD363680460B442BC
:10068000436018606060816002D0A068411AA16078
:1006900070BC704708090020AFF30080AFF3008002
:1006A0000368074A934203D0996882688918996061
:1006B00042681360036800215A60C160704700BF40
:1006C00008090020AFF30080AFF30080AFF3008093
:1006D000202383F31188037F0D2B11D8DFE803F06B
:1006E00020101007100B101010101010100B416A82
:1006F0008A68531C8B6090E80C001A6001684B609C
:100700004FF0FF3242628168074B002202771B687C
:100710009A688A42FBD25968036041600860586059
:10072000002383F31188704718090020AFF300807D
:1007300040F61813C2F2000300225B601B609A604F
:100740005B611B61704700BFAFF30080AFF30080B7
:1007500000228168054B02771B689A688A42FBD2A7
:1007600059680360416008605860704718090020AC
:1007700040F61813C2F2000310B499691A6808779A
:1007800014201468C87701201077104663601C603D
:100790009A6110BCFFF78CBEAFF30080AFF300800E
:1007A00030B54B1C87B0054611D00B4C0B4AA369E2
:1007B00001A8FFF755FF2846FFF7DAFF049B13B1A6
:1007C00001A8FFF76DFFA069406A07B030BDFFF7D1
:1007D000CFFF014CF7E700BF18090020D106000841
:1007E000F0B4144F8568BE690446B06861620023A6
:1007F00085420CD82377394609688A689542FBD927
:1008000048682160606004604C60F0BC70473377DA
:10081000394609688A689042FBD94868316070603F
:1008200006604E600123204631462377BC61F0BC50
:10083000FFF73EBE18090020AFF30080AFF3008041
:100840000E4B18689969026830B453601A608C685E
:1008500098610125142300220577CB770A77034698
:1008600000E01B689A68A242FBD25A680B604A609B
:100870001160596030BCFFF71BBE00BF1809002093
:100880000D4B18689969026830B453608C681A601F
:1008900001259861002305770B77034600E01B686C
:1008A0009A68A242FBD85A680B604A60116059608E
:1008B00030BCFFF7FDBD00BF18090020AFF300807A
:1008C000034B9869C17F09B1FFF7DABFFFF7B8BFE3
:1008D00018090020AFF30080AFF30080AFF3008071
:1008E000F0B440F61814C2F20004002265690164F5
:1008F000046100F12C06816000F1280745614FF08A
:10090000020C60610121142480F81CC04277C47776
:10091000C2638263026281778261286187620663B3
:10092000C662F0BC704700BFAFF30080AFF3008039
:100930002DE9F00340F61815C2F20005A1F1240CD0
:1009400000EB0C076969C76040F80C30069B7B60C0
:1009500040F2C143C0F600033B6202230377142335
:100960000026904600F1280900F12C02C3770123EC
:100970000561C0F808804161044668614677C0F8A7
:100980004080C66386630662837786610861C0F82B
:1009900028900263C262BDE8F0037047AFF30080A5
:1009A00010B51C4682B0202383F311882346049C93
:1009B0000094FFF7BDFF00210446FFF711FF00235D
:1009C00083F31188204602B010BD00BFAFF3008052
:1009D00008B50146202383F311880620FFF7E0FEC7
:1009E000002383F3118808BDAFF30080AFF30080CC
:1009F00038B50E4B9C692546606255F8280FA84211
:100A000006D00168A162FFF7A3FEA06AA842F8D150
:100A1000607F830704D1636922691A6121694B6190
:100A20000E20BDE83840FFF7A3BE00BF1809002024
:100A3000202383F31188FFF7DBBF00BFAFF30080F3
:100A40000023406000608360704700BFAFF3008008
:100A500008B5826B037F1143082B81630BD0092BF0
:100A600000D008BD426A11408A42FAD1FFF770FEF9
:100A70000021416208BD436A1942F7D108BD00BF99
:100A800070B50468A04205460E4608D0201D0BC86C
:100A90003343E360FFF7DCFF2468A542F6D170BD65
:100AA00010B4024659B1084B9B69586244680D2046
:100AB00083E814005360236010BCFFF771BE4FF051
:100AC000FF3010BC704700BF18090020AFF3008052
:100AD00010B4C361019B40608A18002400608460E8
:100AE00041618161C1600261036210BC704700BF57
:100AF000426908B503468069824298681AD001307D
:100B0000986002F8011B19695A618A420BD2186871
:100B100098420DD0016819604B60FFF719FE002361
:100B20004362184608BD1868DA6898425A61F1D1E4
:100B3000002008BD0028E2D06FF0030008BD00BF10
:100B400070B5202304460E4683F31188C36903B1B0
:100B50009847A568204631463DB9FFF7A1FF002818
:100B6000F7DA2B4683F3118870BDA1692269013D34
:100B7000A56011F8010B9142A16124BFE168A16158
:100B8000002383F3118870BDAFF30080AFF30080C2
:100B90002DE9F0471E460446C769202383F31188D8
:100BA0004FF0000801F1010901EB020A0FB12046E4
:100BB000B847A568204631464DB9FFF771FF0028B8
:100BC000F7D02B4683F311884046BDE8F087A36930
:100BD000013DA56013F8012B09F8012C2069A361E0
:100BE000834224BFE368A361002383F31188D145C6
:100BF00008F10108E8D0202383F3118809F10109E5
:100C0000D4E700BFAFF30080AFF30080AFF3008004
:100C100010B4C361019B40608C1800608260416128
:100C20008161C1600461036210BC7047AFF3008052
:100C3000F8B504460F461646202383F31188A568AD
:100C4000204631463DB9FFF72BFF0028F7DA2B4647
:100C500083F31188F8BD6369013DA56003F8017B4A
:100C600022696361934228BFE368E16928BF636139
:100C700009B120468847002383F311881846F8BD40
:100C8000826941699142034610B5806816D0441CC0
:100C90009C6012F8014B19699A618A420BD218685C
:100CA000984206D0016819604B60FFF751FD0023A0
:100CB0004362204610BDDA689A61F0E70028E6D06A
:100CC0006FF0020010BD00BFAFF30080AFF30080F3
:100CD0002DE9F0479A46044688461646D0F81C90FF
:100CE000202383F311880027A56820466B1EEDB1F1
:100CF000A360656918F8011B05F8011B226965618D
:100D0000954224BFE2686261B9F1000F00D0C84784
:100D1000002383F311880137013E10D0202383F391
:100D20001188A56820466B1E002DE1D12046514652
:100D3000FFF7B6FE0028D7D02B4683F3118838463C
:100D4000BDE8F087AFF30080AFF30080AFF3008021
:100D500040F6381240F634134CF200010648C2F255
:100D60000002C2F20003C2F2010120F0070021F0EC
:100D700007011060196070470F0C0020AFF300806E
:100D8000202383F31188094B09491A680968073041
:100D900020F00700891A88429ABF101818600022B4
:100DA000002383F311881046704700BF38090020E4
:100DB00034090020AFF30080AFF30080AFF3008070
:100DC00040F64013C2F2000340F681510022C0F603
:100DD000000103F1100019609A60DA60FFF730BE7D
:100DE00008B500F0FDFA41F66040C0F6000000F0E2
:100DF0008FFC00F00DF800F023F800F071F800F01F
:100E0000BFF8BDE8084000F04BBE00BFAFF3008064
:100E100000F0B6BBAFF30080AFF30080AFF300800B
:100E200000230122027043608360C3600361436159
:100E30001830FFF705BE00BFAFF30080AFF30080AE
:100E400000F056BCAFF30080AFF30080AFF300803A
:100E50000123002103704160704700BFAFF30080A1
:100E60000C30FFF795BE00BFAFF30080AFF30080FA
:100E70000C304FF0FF33FFF78BBE00BFAFF30080A5
:100E80003030FFF725BF00BFAFF30080AFF3008025
:100E900030304FF0FF33FFF71BBF00BFAFF30080D0
:100EA0000C30FFF74DBE00BFAFF30080AFF3008002
:100EB0000C304FF0FF31FFF743BE00BFAFF30080AF
:100EC0003030FFF7B5BE00BFAFF30080AFF3008056
:100ED00030304FF0FF32FFF7ABBE00BFAFF3008002
:100EE00000F0BEBDAFF30080AFF30080AFF3008031
:100EF00070B541F680330546C0F60003044645F858
:100F0000043B82B0656001250B46164604F154018E
:100F10001022257200F10C000094FFF7D9FD009417
:100F200004F1300004F1640110223346FFF770FE33
:100F300002B070BDAFF30080AFF30080AFF300806C
:100F400038B5436904460D463BB104F10C0029460F
:100F5000FFF7CEFD00280BDB38BD04300421FFF77E
:100F60008FFD04F10C002946FFF7C2FD0028F3DADB
:100F7000201D8021BDE83840FFF782BDAFF300801F
:100F800000F09EBCAFF30080AFF30080AFF30080B1
:100F9000002301220270436083600C30FFF750BDD4
:100FA0004FF4C043C4F2020307481968026810B541
:100FB0003D2401F03D019C600AB140689047BDE8C6
:100FC0001040FFF72DBA00BF60090020AFF300808A
:100FD0004FF4C043C4F2020308481968826810B590
:100FE0008C0904F03D014FF474649C600AB1C06840
:100FF0009047BDE81040FFF713BA00BF600900201A
:101000004FF4C043C4F2020308481968026910B5DE
:101010000C0C04F03D014FF474149C600AB140695B
:101020009047BDE81040FFF7FBB900BF6009002002
:101030004FF4C043C4F2020308481968826910B52E
:101040008C0D04F03D014FF074649C600AB1C069DE
:101050009047BDE81040FFF7E3B900BF60090020EA
:101060004FF4C043C4F2020307485968026A10B53E
:101070003D2401F03D01DC600AB1406A9047BDE8C3
:101080001040FFF7CDB900BF60090020AFF300802A
:101090004FF4C043C4F2020308485968826A10B58D
:1010A0008C0904F03D014FF47464DC600AB1C06A3D
:1010B0009047BDE81040FFF7B3B900BF60090020BA
:1010C0004FF4C043C4F2020308485968026B10B5DC
:1010D0000C0C04F03D014FF47414DC600AB1406B59
:1010E0009047BDE81040FFF79BB900BF60090020A2
:1010F0004FF4C043C4F2020308485968826B10B52C
:101100008C0D04F03D014FF07464DC600AB1C06BDB
:101110009047BDE81040FFF783B900BF6009002089
:101120004FF4C843C4F2020307481968026C10B5B3
:101130003D2401F03D019C600AB1406C9047BDE840
:101140001040FFF76DB900BF60090020AFF30080C9
:101150004FF4C843C4F2020308481968826C10B502
:101160008C0904F03D014FF474649C600AB1C06CBA
:101170009047BDE81040FFF753B900BF6009002059
:101180004FF4C843C4F2020308481968026D10B551
:101190000C0C04F03D014FF474149C600AB1406DD6
:1011A0009047BDE81040FFF73BB900BF6009002041
:1011B0004FF4C843C4F2020308481968826D10B5A1
:1011C0008C0D04F03D014FF074649C600AB1C06D59
:1011D0009047BDE81040FFF723B900BF6009002029
:1011E0004FF4C843C4F2020307485968026E10B5B1
:1011F0003D2401F03D01DC600AB1406E9047BDE83E
:101200001040FFF70DB900BF60090020AFF3008068
:101210004FF4C843C4F2020308485968826E10B5FF
:101220008C0904F03D014FF47464DC600AB1C06EB7
:101230009047BDE81040FFF7F3B800BF60090020F9
:101240004FF4C843C4F2020308485968026F10B54E
:101250000C0C04F03D014FF47414DC600AB1406FD3
:101260009047BDE81040FFF7DBB800BF60090020E1
:101270004FF4C843C4F2020308485968826F10B59E
:101280008C0D04F03D014FF07464DC600AB1C06F56
:101290009047BDE81040FFF7C3B800BF60090020C9
:1012A0002DE9F00F40F6E0158AB0C2F2000546F2D3
:1012B00040400295783046F21045C4F20205A0F590
:1012C00080600495C4F2020046F240450390C4F2E7
:1012D000020546F228400695C4F2020046F2704527
:1012E0000590C4F2020546F258400195C4F202008E
:1012F00046F2B8450790C4F2020546F288400995C7
:10130000C4F20200029D089046F2100B002040F645
:10131000601346F2280A46F2400946F2580846F29F
:10132000700C46F2880746F2A006C2F2000328605D
:10133000C4F2020B039DCBF80000C4F2020AC4F20F
:101340000209C4F20208C4F2020CC4F20207C4F299
:1013500002061860CAF800009860C9F80000186119
:10136000C8F800009861CCF80000186238609862F4
:10137000306018632860049D98632860059D186498
:101380002860069D98642860079D186546F2104401
:1013900028606034019D986530342860C4F20204EE
:1013A000089D18664FF4C0414FF4C8422860C4F24B
:1013B00002019866C4F202022060099C18674FF08F
:1013C000FF35206098678D60CD609560D5600AB06C
:1013D000BDE8F00F704700BFAFF30080AFF30080AF
:1013E0004FF46053C4F2020300224FF0FF3019693A
:1013F00070B418611A61596958615A6199699861A4
:101400009A611E6A4EF2100166F080561E62CEF29C
:1014100000011A6249F23F054EF6F0545E6A5862C6
:10142000CEF200040720C0F202055A624D608A60C5
:101430000860E0684FF48051CEF2000140F0807007
:10144000E060086840F001000860186C4FF4E0416B
:10145000C4F2000140F080501864086840F48070C5
:101460000860196F01F44070B0F5007F03D04FF4AD
:10147000803119671A674FF46053C4F202031A6F80
:10148000120407D4186F40F4007119671A6F42F400
:101490000040186770BCFFF703BF00BFAFF30080C8
:1014A0004FF46052C4F202024FF4E043C4F200036E
:1014B0004FF0805111644FF4804218461A6043681F
:1014C0005904FCD54FF46050C4F202000146026892
:1014D00042F00103036008684FF460538207C4F2CE
:1014E0000203F8D5196841F480321A601946086879
:1014F0004FF460538003C4F20203F8D55A6F42F0F0
:10150000010159671846426F4FF460539207C4F2C5
:101510000203F8D545F20841C0F2407159601868DD
:1015200040F080721A60194608684FF460538001D9
:10153000C4F20203F8D598684FF414424FF4705186
:10154000C3F60802C4F20201104340F2057298602B
:101550000A60996841F002009860996801F00C00F7
:101560004FF460520828C4F20202F6D1536C43F4DF
:1015700080415164506E40F480435366704700BF11
:1015800010B540F6E414C2F200042046FFF748FC10
:101590004FF40052C4F20102A26242F61643054A19
:1015A000C0F2020312206021E2622363BDE8104012
:1015B000FEF78EBF301C0008AFF30080AFF3008051
:1015C000C16A0A68136810B423F01F04146013681A
:1015D00013F00103FBD10C7A826A49683D2000FABE
:1015E00004F00860536093600123936010BC70475F
:1015F0004FF40053C4F2010300211A6810B51960BA
:10160000910625D5164CE06A03685A6802B3216931
:10161000F1B12046FFF7D4FF206983683BB1052272
:1016200001212270204698472178052914D00022F4
:101630002261202383F31188606930B14FF0FF33BA
:10164000074943624A61FFF783F8002383F3118857
:10165000BDE81040FEF7E4BE02202070E7E700BFBF
:10166000E4090020AFF30080AFF30080AFF3008007
:1016700038B51C4D2B691A8A9C89A4B21440E143E9
:1016800004F0020089B282B21982002A24D104F047
:10169000040082B2DAB904F0080082B292B904F010
:1016A000100082B24AB9E30703D56A680D4893680F
:1016B0009847BDE83840FEF7B3BE6B680948996AA1
:1016C0008847F0E76B680748196A8847E7E76B685F
:1016D000044899698847DEE76B6828461969884796
:1016E000D5E700BF180A0020AFF30080AFF30080F9
:1016F00010B540F61824C2F200042046FFF7A8FBFC
:101700004FF40063C4F20003236110BDAFF3008007
:101710004FF46053C4F202031A6B6FEA52216FEA6E
:1017200041221A63196D6FEA51226FEA422119654D
:1017300000234168C4F202034FF48062596081685B
:101740009960C168D960016959614169196281690B
:10175000596201681960016AC4F202024FF4006321
:101760005160416A9160816AD160C16A5161016BC7
:101770001162416B5162C1691160C4F20203C26B14
:101780005A60016C9960426CDA60816C5961C26C7C
:101790001A62016D5962816B4FF440621960816D6C
:1017A000C4F202024FF480535160C16D9160016E2A
:1017B000D160416E5161816E1162C16E5162416DA5
:1017C0001160C4F20203426F5A60816F9960C26F68
:1017D000DA60D0F880105961D0F884201A62D0F80D
:1017E00088105962016F4FF4A0521960D0F8901020
:1017F000C4F202024FF4C0535160D0F894109160CB
:10180000D0F89810D160D0F89C105161D0F8A01099
:101810001162D0F8A4105162D0F88C101160D0F889
:10182000AC10C4F202034FF4E0525960D0F8B0108B
:101830009960D0F8B410D960D0F8B8105961D0F8D8
:10184000BC101962D0F8C0105962D0F8A810C4F2C8
:1018500002021960D0F8C8305360D0F8CC10916003
:10186000D0F8D030D360D0F8D4105161D0F8D8304F
:101870001362D0F8DC105162D0F8C4104FF400535A
:101880001160D0F8E420C4F202035A60D0F8E810E6
:101890009960D0F8EC20DA60D0F8F0105961D0F8F7
:1018A000F4201A62D0F8F8105962D0F8E0001860FD
:1018B000704700BFAFF30080AFF30080AFF300804C
:1018C00038B540F62C2340F63024C2F20004C2F2B0
:1018D00000034FF6FF7220461A80FFF759FB0949B3
:1018E0004FF4605016224623C4F2000001F10C05AB
:1018F000C0F20102C0F20103E06121626562A262EE
:10190000E36238BDC41B0008AFF30080AFF3008072
:101910004FF48843C4F200039A8990B240F08001EA
:1019200099817047AFF30080AFF30080AFF3008080
:10193000F8B5474B5D6FAE892C88A988A4B2220701
:10194000B6B28FB24BD104F4807188B2002834D182
:1019500004F0200293B2002B24D106F0800188B25B
:1019600020B104F0800293B2002B59D104F040045E
:10197000A4B29CB1202383F3118836481021FFF7CD
:101980007FF8002383F311884FF6BF733340AB8198
:10199000298821F040000204130C2B80BDE8F84098
:1019A000FEF73EBD202383F311882948F9B2FFF7E3
:1019B000C7FA002383F31188CFE7202383F311882C
:1019C00024484FF40071FFF75BF8002383F311887C
:1019D0002A8822F480731904080C2880B8E704F0E0
:1019E000080082B2002A14BF80210021E30704F01E
:1019F000020398B248BF41F0200108B141F0400114
:101A000004F0040293B20BB141F48071202383F3FC
:101A100011881048FFF734F8002383F3118892E708
:101A2000202383F311880C48FFF72AF9002805DBEF
:101A300081B2A980002383F3118897E70548082124
:101A4000FFF71EF826F0C00040F04002AA81F1E73F
:101A5000600A0020640A0020900A0020AFF3008092
:101A600010B540F66024C2F2000441F6111220467F
:101A70000021C0F60002FFF73BFA4FF48843C4F29E
:101A80000003636710BD00BFAFF30080AFF30080B9
:101A9000FFF706BDAFF30080AFF30080AFF3008027
:101AA000704700BFAFF30080AFF30080AFF300805A
:101AB0000B4B0C4A986970B54FF440644FF40055D5
:101AC0008261C4F202042E4626834FF4FA70FEF7B8
:101AD0007FFF65834FF4FA70FEF77AFFF4E700BFEB
:101AE00018090020601D0008AFF30080AFF30080EC
:101AF00000B583B00023009340F6D82041F6B1230F
:101B00004FF498714022C0F60003C2F20000FEF7C5
:101B100047FF03B000BD00BFAFF30080AFF300800C
:101B200038B54FF44064C4F202044FF480554FF4CA
:101B3000FA702583FEF74CFF4FF4FA706583BDE819
:101B40003840FEF745BF00BFAFF30080AFF3008021
:101B500069646C65000000000000000000000000E7
:101B60006D61696E00164211040448080C101418C7
:101B7000001C1D1E1F2000000000000000000000CF
:101B8000910E0008710E0008D10E0008B10E000879
:101B9000C10E0008A10E0008810E0008610E0008A9
:101BA000106002400860024000000B002860024004
:101BB0000860024006010C004060024008600240DC
:101BC00010020D00586002400860024016030E002B
:101BD000706002400C60024000040F008860024008
:101BE0000C60024006051000A06002400C6002403C
:101BF00010061100B86002400C60024016072F006A
:101C00001064024008640240000838002864024062
:101C1000086402400609390040640240086402403A
:101C2000100A3A005864024008640240160B3B0058
:101C3000706402400C640240000C3C008864024066
:101C40000C640240060D4400A06402400C64024093
:101C5000100E4500B86402400C640240160F4600A6
:101C600000AAA02A00000000FFABFFFF54000140C3
:101C7000FFFF00000000565500AA0A00802008005F
:101C800040020000FFFFFFFF15455155FFFF000018
:101C9000000000044000000001802002000000005D
:101CA000FFFFFFFF54154554FFFF000000000060D8
:101CB000000606000001005500000000FFFFFFFFC6
:101CC00055505500FF0F000000000000000000000C
:101CD0004000000000000000FFFFFFFF00000000C8
:101CE000FFFF0000000000000000000000000000F6
:101CF00000000000FFFFFFFF00000000FFFF0000EA
:101D000000000000000000000000000000000000D3
:101D1000FFFFFFFF00000000FFFF000000000000C9
:101D2000000000000000000000000000FFFFFFFFB7
:101D300000000000FFFF00000000000000000000A5
:101D40000000000000000000FFFFFFFF0000000097
:101D5000FFFF000000000000000000000000000085
:081D6000626C696E6B65720094
:04000005080001D11D
:00000001FF
